:040000001EEF05F0FA
:1006000000474554202F6368616E6E656C732F330D
:1006100034313131382F66656564732E6A736F6EBD
:100620003F6B65793D3055375A4C4758484E3447F3
:10063000494C53484126726573756C74733D310D96
:100640000A0041542B43574A41503D224A5344200B
:10065000454C454354524F4E49435320222C224788
:100660005053424F585F6A736440282A265E3534DF
:10067000333231220D0A0041542B43495053544127
:1006800052543D342C22544350222C223138342EE3
:100690003130362E3135332E313439222C38300D6D
:1006A0000A0041542B4349505345525645523D315F
:1006B0002C38300D0A0041542B43495053454E44C9
:1006C0003D342C36340D0A0041542B4349504D55CE
:1006D000583D310D0A0041540D0A0000000E0F0173
:1006E0003A6F800E946E000E936E000E0F01396FFC
:1006F000000E0E6EC20E0F6E010E106E000E116E09
:10070000F7EC04F0290E156E960E146E7F0EE82E8F
:10071000FED7142EFCD7152EFAD700F0420E016E2C
:10072000060E026ECDEC04F0290E156E960E146EB8
:100730007F0EE82EFED7142EFCD7152EFAD700F028
:10074000000E2B6E000E2A6ED60E016E060E026E85
:10075000CDEC04F0290E156E960E146E7F0EE82E69
:10076000FED7142EFCD7152EFAD700F0C80E016E56
:10077000060E026ECDEC04F0290E156E960E146E68
:100780007F0EE82EFED7142EFCD7152EFAD700F0D8
:10079000A20E016E060E026ECDEC04F0290E156E4F
:1007A000960E146E7F0EE82EFED7142EFCD7152E53
:1007B000FAD700F0770E016E060E026ECDEC04F053
:1007C000290E156E960E146E7F0EE82EFED7142E8F
:1007D000FCD7152EFAD700F0B60E016E060E026E8B
:1007E000CDEC04F0290E156E960E146E7F0EE82ED9
:1007F000FED7142EFCD7152EFAD700F0010E016E8D
:10080000060E026ECDEC04F0290E156E960E146ED7
:100810007F0EE82EFED7142EFCD7152EFAD700F047
:10082000000E346E000E336E34BE06D02A0E335CDA
:10083000010E3458D8B009D023EC05F0146E1450D2
:10084000316E326A334A342AEFD7000E346E000E0E
:10085000336E08D023EC05F0146E1450316E326AFA
:10086000334A342A345009E1370E335CD8B005D00E
:10087000660E31183210D8A4EDD7000E346E000E7B
:10088000336E08D023EC05F0146E1450316E326ACA
:10089000334A342A345009E1370E335CD8B005D0DE
:1008A0003A0E31183210D8A4EDD723EC05F0146EAF
:1008B00014502C6E2D6A23EC05F0146E1450316E1A
:1008C000326A000E306E000E2F6E12D0D8902F3488
:1008D000D96E3034DA6E160ED926000EDA2231C007
:1008E000DEFF32C0DDFF2EC031F0326A2F4A302ADF
:1008F00030BE06D0305009E1070E2F5CD8B005D0CD
:10090000220E31183210D8A4E1D7160E016E000E57
:10091000026ECDEC04F084D7000E096E000E0A6E54
:10092000000E0B6E000E0C6E05500610071008101E
:10093000D8B42AD0010E0D6E06D0D89005360636F2
:10094000073608360D2A08AEF8D7D89009360A3689
:100950000B360C360550015C065002580750035800
:1009600008500458D8A009D00550015E0650025A1C
:100970000750035A0850045A0980D89008320732A9
:10098000063205320D2EE1D709C001F00AC002F08F
:100990000BC003F00CC004F0120015D09EA8FED7C7
:1009A00001C0F6FF02C0F7FFF86A050EF76403D036
:1009B0000800F55005D0F6CFE9FFF7CFEAFFEF507A
:1009C000AD6E014A022A01C0F6FF02C0F7FFF86AC5
:1009D000050EF76403D00800F55005D0F6CFE9FF07
:1009E000F7CFEAFFEF500009D8B41200D7D7000EB6
:1009F000AC6E000EAB6EAC98B886AB8EAB88AC8498
:100A0000AC8A000E016E090E026E3D0E036E000EE2
:100A1000046E0EC005F00FC006F010C007F011C044
:100A200008F08CEC04F0FF0E0124126EFF0E022081
:100A3000136E1350B06E12C0AFFF1200000EF86EAE
:0E0A400000016EEF03F09EAAFED7AE5012002A
:020000040020DA
:08000000FFFFFFFFFFFFFFFF00
:020000040030CA
:0E000000FF031F3CFFB580FF0FC00FE00F4055
:00000001FF
